{
  "address": "0xfaD6BD6a9CF092C4Ab292503366f95d2C4AA5B47",
  "abi": [
    {
      "inputs": [],
      "stateMutability": "nonpayable",
      "type": "constructor"
    },
    {
      "anonymous": false,
      "inputs": [
        {
          "indexed": true,
          "internalType": "address",
          "name": "owner",
          "type": "address"
        },
        {
          "indexed": true,
          "internalType": "address",
          "name": "spender",
          "type": "address"
        },
        {
          "indexed": false,
          "internalType": "uint256",
          "name": "value",
          "type": "uint256"
        }
      ],
      "name": "Approval",
      "type": "event"
    },
    {
      "anonymous": false,
      "inputs": [],
      "name": "EIP712DomainChanged",
      "type": "event"
    },
    {
      "anonymous": false,
      "inputs": [
        {
          "indexed": false,
          "internalType": "uint8",
          "name": "version",
          "type": "uint8"
        }
      ],
      "name": "Initialized",
      "type": "event"
    },
    {
      "anonymous": false,
      "inputs": [
        {
          "indexed": false,
          "internalType": "address",
          "name": "account",
          "type": "address"
        }
      ],
      "name": "Paused",
      "type": "event"
    },
    {
      "anonymous": false,
      "inputs": [
        {
          "indexed": true,
          "internalType": "bytes32",
          "name": "role",
          "type": "bytes32"
        },
        {
          "indexed": true,
          "internalType": "bytes32",
          "name": "previousAdminRole",
          "type": "bytes32"
        },
        {
          "indexed": true,
          "internalType": "bytes32",
          "name": "newAdminRole",
          "type": "bytes32"
        }
      ],
      "name": "RoleAdminChanged",
      "type": "event"
    },
    {
      "anonymous": false,
      "inputs": [
        {
          "indexed": true,
          "internalType": "bytes32",
          "name": "role",
          "type": "bytes32"
        },
        {
          "indexed": true,
          "internalType": "address",
          "name": "account",
          "type": "address"
        },
        {
          "indexed": true,
          "internalType": "address",
          "name": "sender",
          "type": "address"
        }
      ],
      "name": "RoleGranted",
      "type": "event"
    },
    {
      "anonymous": false,
      "inputs": [
        {
          "indexed": true,
          "internalType": "bytes32",
          "name": "role",
          "type": "bytes32"
        },
        {
          "indexed": true,
          "internalType": "address",
          "name": "account",
          "type": "address"
        },
        {
          "indexed": true,
          "internalType": "address",
          "name": "sender",
          "type": "address"
        }
      ],
      "name": "RoleRevoked",
      "type": "event"
    },
    {
      "anonymous": false,
      "inputs": [
        {
          "indexed": false,
          "internalType": "uint256",
          "name": "id",
          "type": "uint256"
        }
      ],
      "name": "Snapshot",
      "type": "event"
    },
    {
      "anonymous": false,
      "inputs": [
        {
          "indexed": true,
          "internalType": "address",
          "name": "from",
          "type": "address"
        },
        {
          "indexed": true,
          "internalType": "address",
          "name": "to",
          "type": "address"
        },
        {
          "indexed": false,
          "internalType": "uint256",
          "name": "value",
          "type": "uint256"
        }
      ],
      "name": "Transfer",
      "type": "event"
    },
    {
      "anonymous": false,
      "inputs": [
        {
          "indexed": true,
          "internalType": "address",
          "name": "sender",
          "type": "address"
        },
        {
          "indexed": true,
          "internalType": "address",
          "name": "recipient",
          "type": "address"
        },
        {
          "indexed": false,
          "internalType": "uint256",
          "name": "amount",
          "type": "uint256"
        },
        {
          "indexed": false,
          "internalType": "uint256",
          "name": "ref",
          "type": "uint256"
        }
      ],
      "name": "TransferRef",
      "type": "event"
    },
    {
      "anonymous": false,
      "inputs": [
        {
          "indexed": false,
          "internalType": "address",
          "name": "account",
          "type": "address"
        }
      ],
      "name": "Unpaused",
      "type": "event"
    },
    {
      "inputs": [],
      "name": "DEFAULT_ADMIN_ROLE",
      "outputs": [
        {
          "internalType": "bytes32",
          "name": "",
          "type": "bytes32"
        }
      ],
      "stateMutability": "view",
      "type": "function"
    },
    {
      "inputs": [],
      "name": "DOMAIN_SEPARATOR",
      "outputs": [
        {
          "internalType": "bytes32",
          "name": "",
          "type": "bytes32"
        }
      ],
      "stateMutability": "view",
      "type": "function"
    },
    {
      "inputs": [],
      "name": "MINTER_ROLE",
      "outputs": [
        {
          "internalType": "bytes32",
          "name": "",
          "type": "bytes32"
        }
      ],
      "stateMutability": "view",
      "type": "function"
    },
    {
      "inputs": [],
      "name": "PAUSER_ROLE",
      "outputs": [
        {
          "internalType": "bytes32",
          "name": "",
          "type": "bytes32"
        }
      ],
      "stateMutability": "view",
      "type": "function"
    },
    {
      "inputs": [],
      "name": "SNAPSHOT_ROLE",
      "outputs": [
        {
          "internalType": "bytes32",
          "name": "",
          "type": "bytes32"
        }
      ],
      "stateMutability": "view",
      "type": "function"
    },
    {
      "inputs": [
        {
          "internalType": "address",
          "name": "owner",
          "type": "address"
        },
        {
          "internalType": "address",
          "name": "spender",
          "type": "address"
        }
      ],
      "name": "allowance",
      "outputs": [
        {
          "internalType": "uint256",
          "name": "",
          "type": "uint256"
        }
      ],
      "stateMutability": "view",
      "type": "function"
    },
    {
      "inputs": [
        {
          "internalType": "address",
          "name": "spender",
          "type": "address"
        },
        {
          "internalType": "uint256",
          "name": "amount",
          "type": "uint256"
        }
      ],
      "name": "approve",
      "outputs": [
        {
          "internalType": "bool",
          "name": "",
          "type": "bool"
        }
      ],
      "stateMutability": "nonpayable",
      "type": "function"
    },
    {
      "inputs": [
        {
          "internalType": "address",
          "name": "account",
          "type": "address"
        }
      ],
      "name": "balanceOf",
      "outputs": [
        {
          "internalType": "uint256",
          "name": "",
          "type": "uint256"
        }
      ],
      "stateMutability": "view",
      "type": "function"
    },
    {
      "inputs": [
        {
          "internalType": "address",
          "name": "account",
          "type": "address"
        },
        {
          "internalType": "uint256",
          "name": "snapshotId",
          "type": "uint256"
        }
      ],
      "name": "balanceOfAt",
      "outputs": [
        {
          "internalType": "uint256",
          "name": "",
          "type": "uint256"
        }
      ],
      "stateMutability": "view",
      "type": "function"
    },
    {
      "inputs": [
        {
          "internalType": "uint256",
          "name": "amount",
          "type": "uint256"
        }
      ],
      "name": "burn",
      "outputs": [],
      "stateMutability": "nonpayable",
      "type": "function"
    },
    {
      "inputs": [
        {
          "internalType": "address",
          "name": "account",
          "type": "address"
        },
        {
          "internalType": "uint256",
          "name": "amount",
          "type": "uint256"
        }
      ],
      "name": "burnFrom",
      "outputs": [],
      "stateMutability": "nonpayable",
      "type": "function"
    },
    {
      "inputs": [],
      "name": "cap",
      "outputs": [
        {
          "internalType": "uint256",
          "name": "",
          "type": "uint256"
        }
      ],
      "stateMutability": "view",
      "type": "function"
    },
    {
      "inputs": [],
      "name": "childChainManagerProxy",
      "outputs": [
        {
          "internalType": "address",
          "name": "",
          "type": "address"
        }
      ],
      "stateMutability": "view",
      "type": "function"
    },
    {
      "inputs": [],
      "name": "decimals",
      "outputs": [
        {
          "internalType": "uint8",
          "name": "",
          "type": "uint8"
        }
      ],
      "stateMutability": "view",
      "type": "function"
    },
    {
      "inputs": [
        {
          "internalType": "address",
          "name": "spender",
          "type": "address"
        },
        {
          "internalType": "uint256",
          "name": "subtractedValue",
          "type": "uint256"
        }
      ],
      "name": "decreaseAllowance",
      "outputs": [
        {
          "internalType": "bool",
          "name": "",
          "type": "bool"
        }
      ],
      "stateMutability": "nonpayable",
      "type": "function"
    },
    {
      "inputs": [
        {
          "internalType": "address",
          "name": "user",
          "type": "address"
        },
        {
          "internalType": "bytes",
          "name": "depositData",
          "type": "bytes"
        }
      ],
      "name": "deposit",
      "outputs": [],
      "stateMutability": "nonpayable",
      "type": "function"
    },
    {
      "inputs": [],
      "name": "eip712Domain",
      "outputs": [
        {
          "internalType": "bytes1",
          "name": "fields",
          "type": "bytes1"
        },
        {
          "internalType": "string",
          "name": "name",
          "type": "string"
        },
        {
          "internalType": "string",
          "name": "version",
          "type": "string"
        },
        {
          "internalType": "uint256",
          "name": "chainId",
          "type": "uint256"
        },
        {
          "internalType": "address",
          "name": "verifyingContract",
          "type": "address"
        },
        {
          "internalType": "bytes32",
          "name": "salt",
          "type": "bytes32"
        },
        {
          "internalType": "uint256[]",
          "name": "extensions",
          "type": "uint256[]"
        }
      ],
      "stateMutability": "view",
      "type": "function"
    },
    {
      "inputs": [],
      "name": "feeBps",
      "outputs": [
        {
          "internalType": "uint256",
          "name": "",
          "type": "uint256"
        }
      ],
      "stateMutability": "view",
      "type": "function"
    },
    {
      "inputs": [],
      "name": "feeCap",
      "outputs": [
        {
          "internalType": "uint256",
          "name": "",
          "type": "uint256"
        }
      ],
      "stateMutability": "view",
      "type": "function"
    },
    {
      "inputs": [],
      "name": "feeFixed",
      "outputs": [
        {
          "internalType": "uint256",
          "name": "",
          "type": "uint256"
        }
      ],
      "stateMutability": "view",
      "type": "function"
    },
    {
      "inputs": [
        {
          "internalType": "bytes32",
          "name": "role",
          "type": "bytes32"
        }
      ],
      "name": "getRoleAdmin",
      "outputs": [
        {
          "internalType": "bytes32",
          "name": "",
          "type": "bytes32"
        }
      ],
      "stateMutability": "view",
      "type": "function"
    },
    {
      "inputs": [
        {
          "internalType": "bytes32",
          "name": "role",
          "type": "bytes32"
        },
        {
          "internalType": "address",
          "name": "account",
          "type": "address"
        }
      ],
      "name": "grantRole",
      "outputs": [],
      "stateMutability": "nonpayable",
      "type": "function"
    },
    {
      "inputs": [
        {
          "internalType": "bytes32",
          "name": "role",
          "type": "bytes32"
        },
        {
          "internalType": "address",
          "name": "account",
          "type": "address"
        }
      ],
      "name": "hasRole",
      "outputs": [
        {
          "internalType": "bool",
          "name": "",
          "type": "bool"
        }
      ],
      "stateMutability": "view",
      "type": "function"
    },
    {
      "inputs": [
        {
          "internalType": "address",
          "name": "spender",
          "type": "address"
        },
        {
          "internalType": "uint256",
          "name": "addedValue",
          "type": "uint256"
        }
      ],
      "name": "increaseAllowance",
      "outputs": [
        {
          "internalType": "bool",
          "name": "",
          "type": "bool"
        }
      ],
      "stateMutability": "nonpayable",
      "type": "function"
    },
    {
      "inputs": [],
      "name": "initialize",
      "outputs": [],
      "stateMutability": "nonpayable",
      "type": "function"
    },
    {
      "inputs": [
        {
          "internalType": "address",
          "name": "to",
          "type": "address"
        },
        {
          "internalType": "uint256",
          "name": "amount",
          "type": "uint256"
        }
      ],
      "name": "mint",
      "outputs": [],
      "stateMutability": "nonpayable",
      "type": "function"
    },
    {
      "inputs": [],
      "name": "name",
      "outputs": [
        {
          "internalType": "string",
          "name": "",
          "type": "string"
        }
      ],
      "stateMutability": "view",
      "type": "function"
    },
    {
      "inputs": [
        {
          "internalType": "address",
          "name": "owner",
          "type": "address"
        }
      ],
      "name": "nonces",
      "outputs": [
        {
          "internalType": "uint256",
          "name": "",
          "type": "uint256"
        }
      ],
      "stateMutability": "view",
      "type": "function"
    },
    {
      "inputs": [],
      "name": "pause",
      "outputs": [],
      "stateMutability": "nonpayable",
      "type": "function"
    },
    {
      "inputs": [],
      "name": "paused",
      "outputs": [
        {
          "internalType": "bool",
          "name": "",
          "type": "bool"
        }
      ],
      "stateMutability": "view",
      "type": "function"
    },
    {
      "inputs": [
        {
          "internalType": "address",
          "name": "owner",
          "type": "address"
        },
        {
          "internalType": "address",
          "name": "spender",
          "type": "address"
        },
        {
          "internalType": "uint256",
          "name": "value",
          "type": "uint256"
        },
        {
          "internalType": "uint256",
          "name": "deadline",
          "type": "uint256"
        },
        {
          "internalType": "uint8",
          "name": "v",
          "type": "uint8"
        },
        {
          "internalType": "bytes32",
          "name": "r",
          "type": "bytes32"
        },
        {
          "internalType": "bytes32",
          "name": "s",
          "type": "bytes32"
        }
      ],
      "name": "permit",
      "outputs": [],
      "stateMutability": "nonpayable",
      "type": "function"
    },
    {
      "inputs": [
        {
          "internalType": "bytes32",
          "name": "role",
          "type": "bytes32"
        },
        {
          "internalType": "address",
          "name": "account",
          "type": "address"
        }
      ],
      "name": "renounceRole",
      "outputs": [],
      "stateMutability": "nonpayable",
      "type": "function"
    },
    {
      "inputs": [
        {
          "internalType": "bytes32",
          "name": "role",
          "type": "bytes32"
        },
        {
          "internalType": "address",
          "name": "account",
          "type": "address"
        }
      ],
      "name": "revokeRole",
      "outputs": [],
      "stateMutability": "nonpayable",
      "type": "function"
    },
    {
      "inputs": [],
      "name": "snapshot",
      "outputs": [],
      "stateMutability": "nonpayable",
      "type": "function"
    },
    {
      "inputs": [
        {
          "internalType": "bytes4",
          "name": "interfaceId",
          "type": "bytes4"
        }
      ],
      "name": "supportsInterface",
      "outputs": [
        {
          "internalType": "bool",
          "name": "",
          "type": "bool"
        }
      ],
      "stateMutability": "view",
      "type": "function"
    },
    {
      "inputs": [],
      "name": "symbol",
      "outputs": [
        {
          "internalType": "string",
          "name": "",
          "type": "string"
        }
      ],
      "stateMutability": "view",
      "type": "function"
    },
    {
      "inputs": [],
      "name": "totalSupply",
      "outputs": [
        {
          "internalType": "uint256",
          "name": "",
          "type": "uint256"
        }
      ],
      "stateMutability": "view",
      "type": "function"
    },
    {
      "inputs": [
        {
          "internalType": "uint256",
          "name": "snapshotId",
          "type": "uint256"
        }
      ],
      "name": "totalSupplyAt",
      "outputs": [
        {
          "internalType": "uint256",
          "name": "",
          "type": "uint256"
        }
      ],
      "stateMutability": "view",
      "type": "function"
    },
    {
      "inputs": [
        {
          "internalType": "address",
          "name": "to",
          "type": "address"
        },
        {
          "internalType": "uint256",
          "name": "amount",
          "type": "uint256"
        }
      ],
      "name": "transfer",
      "outputs": [
        {
          "internalType": "bool",
          "name": "",
          "type": "bool"
        }
      ],
      "stateMutability": "nonpayable",
      "type": "function"
    },
    {
      "inputs": [
        {
          "internalType": "address",
          "name": "from",
          "type": "address"
        },
        {
          "internalType": "address",
          "name": "to",
          "type": "address"
        },
        {
          "internalType": "uint256",
          "name": "amount",
          "type": "uint256"
        }
      ],
      "name": "transferFrom",
      "outputs": [
        {
          "internalType": "bool",
          "name": "",
          "type": "bool"
        }
      ],
      "stateMutability": "nonpayable",
      "type": "function"
    },
    {
      "inputs": [],
      "name": "unpause",
      "outputs": [],
      "stateMutability": "nonpayable",
      "type": "function"
    },
    {
      "inputs": [
        {
          "internalType": "address",
          "name": "_childChainManagerProxy",
          "type": "address"
        }
      ],
      "name": "updateChildChainManager",
      "outputs": [],
      "stateMutability": "nonpayable",
      "type": "function"
    },
    {
      "inputs": [
        {
          "internalType": "uint256",
          "name": "amount",
          "type": "uint256"
        }
      ],
      "name": "withdraw",
      "outputs": [],
      "stateMutability": "nonpayable",
      "type": "function"
    }
  ],
  "transactionHash": "0xdbd9db6cec14b8c16b637dd41978349b4e79cd3043cf667ddabde9e8ec5e4f18",
  "args": [],
  "numDeployments": 1,
  "solcInputHash": "54b0d57389669ec23933b0b322b95f61",
  "bytecode": "0x60806040523480156200001157600080fd5b50600054610100900460ff1615808015620000335750600054600160ff909116105b806200004f5750303b1580156200004f575060005460ff166001145b620000b75760405162461bcd60e51b815260206004820152602e60248201527f496e697469616c697a61626c653a20636f6e747261637420697320616c72656160448201526d191e481a5b9a5d1a585b1a5e995960921b606482015260840160405180910390fd5b6000805460ff191660011790558015620000db576000805461ff0019166101001790555b801562000122576000805461ff0019169055604051600181527f7f26b83ff96e1f2b6a682f133852f6798a09c465da95921460cefb38474024989060200160405180910390a15b5061296e80620001336000396000f3fe608060405234801561001057600080fd5b50600436106102695760003560e01c80635c975abb116101515780639711715a116100c3578063cf2c52cb11610087578063cf2c52cb14610513578063d505accf14610526578063d539139314610539578063d547741f14610560578063dd62ed3e14610573578063e63ab1e91461058657600080fd5b80639711715a146104ca578063981b24d0146104d2578063a217fddf146104e5578063a457c2d7146104ed578063a9059cbb1461050057600080fd5b80637ecebe00116101155780637ecebe00146104715780638129fc1c146104845780638456cb591461048c57806384b0196e1461049457806391d14854146104af57806395d89b41146104c257600080fd5b80635c975abb146103d757806362f629e7146103e25780637028e2cd1461040e57806370a082311461043557806379cc67901461045e57600080fd5b80632f2ff15d116101ea57806339509351116101ae57806339509351146103835780633f4ba83a1461039657806340c10f191461039e57806342966c6814610328578063445a6797146103b15780634ee2cd7e146103c457600080fd5b80632f2ff15d1461033d578063313ce56714610350578063355274ea1461035f5780633644e5151461036857806336568abe1461037057600080fd5b806318160ddd1161023157806318160ddd146102e057806323b872dd146102e8578063248a9ca3146102fb57806324a9d8531461031e5780632e1a7d4d1461032857600080fd5b806301ffc9a71461026e57806306fdde0314610296578063075b6e33146102ab578063095ea7b3146102c35780630e3d2202146102d6575b600080fd5b61028161027c366004612323565b61059b565b60405190151581526020015b60405180910390f35b61029e6105d2565b60405161028d919061239d565b6102b56101c95481565b60405190815260200161028d565b6102816102d13660046123c7565b610664565b6102b56101c85481565b6035546102b5565b6102816102f63660046123f1565b61067c565b6102b561030936600461242d565b600090815260c9602052604090206001015490565b6102b56101c75481565b61033b61033636600461242d565b6106a0565b005b61033b61034b366004612446565b6106ad565b6040516012815260200161028d565b610194546102b5565b6102b56106d7565b61033b61037e366004612446565b6106e6565b6102816103913660046123c7565b610769565b61033b61078b565b61033b6103ac3660046123c7565b6107ab565b61033b6103bf366004612472565b6107df565b6102b56103d23660046123c7565b610870565b60fb5460ff16610281565b6101cb546103f6906001600160a01b031681565b6040516001600160a01b03909116815260200161028d565b6102b57f5fdbd35e8da83ee755d5e62a539e5ed7f47126abede0b8b10f9ea43dc6eed07f81565b6102b5610443366004612472565b6001600160a01b031660009081526033602052604090205490565b61033b61046c3660046123c7565b6108c9565b6102b561047f366004612472565b61094c565b61033b61096b565b61033b610b6e565b61049c610b8e565b60405161028d979695949392919061248d565b6102816104bd366004612446565b610c2e565b61029e610c59565b61033b610c68565b6102b56104e036600461242d565b610c9a565b6102b5600081565b6102816104fb3660046123c7565b610cc5565b61028161050e3660046123c7565b610d40565b61033b610521366004612526565b610d4e565b61033b6105343660046125a9565b610dd2565b6102b57f9f2df0fed2c77648de5860a4cc508cd0818c85b8b8a1ab4ceeef8d981c8956a681565b61033b61056e366004612446565b610f36565b6102b561058136600461261c565b610f5b565b6102b560008051602061291983398151915281565b60006001600160e01b03198216637965db0b60e01b14806105cc57506301ffc9a760e01b6001600160e01b03198316145b92915050565b6060603680546105e190612646565b80601f016020809104026020016040519081016040528092919081815260200182805461060d90612646565b801561065a5780601f1061062f5761010080835404028352916020019161065a565b820191906000526020600020905b81548152906001019060200180831161063d57829003601f168201915b5050505050905090565b600033610672818585610f86565b5060019392505050565b60003361068a8582856110aa565b61069585858561111e565b506001949350505050565b6106aa33826112d4565b50565b600082815260c960205260409020600101546106c881611414565b6106d2838361141e565b505050565b60006106e16114a4565b905090565b6001600160a01b038116331461075b5760405162461bcd60e51b815260206004820152602f60248201527f416363657373436f6e74726f6c3a2063616e206f6e6c792072656e6f756e636560448201526e103937b632b9903337b91039b2b63360891b60648201526084015b60405180910390fd5b61076582826114ae565b5050565b60003361067281858561077c8383610f5b565b6107869190612690565b610f86565b6000805160206129198339815191526107a381611414565b6106aa611515565b7f9f2df0fed2c77648de5860a4cc508cd0818c85b8b8a1ab4ceeef8d981c8956a66107d581611414565b6106d28383611567565b60006107ea81611414565b6001600160a01b03821661084c5760405162461bcd60e51b815260206004820152602360248201527f426164204368696c64436861696e4d616e6167657250726f787920616464726560448201526239b99760e91b6064820152608401610752565b506101cb80546001600160a01b0319166001600160a01b0392909216919091179055565b6001600160a01b0382166000908152606560205260408120819081906108979085906115d3565b91509150816108be576001600160a01b0385166000908152603360205260409020546108c0565b805b95945050505050565b60006108d58333610f5b565b9050818110156109335760405162461bcd60e51b8152602060048201526024808201527f45524332303a206275726e20616d6f756e74206578636565647320616c6c6f77604482015263616e636560e01b6064820152608401610752565b610942833361078685856126a3565b6106d283836112d4565b6001600160a01b038116600090815261016160205260408120546105cc565b600054610100900460ff161580801561098b5750600054600160ff909116105b806109a55750303b1580156109a5575060005460ff166001145b610a085760405162461bcd60e51b815260206004820152602e60248201527f496e697469616c697a61626c653a20636f6e747261637420697320616c72656160448201526d191e481a5b9a5d1a585b1a5e995960921b6064820152608401610752565b6000805460ff191660011790558015610a2b576000805461ff0019166101001790555b610a7e6040518060400160405280600f81526020016e466f724c6f6f74416e64476c6f727960881b8152506040518060400160405280600a815260200169464c4147202d20506f5360b01b8152506116c9565b610a866116fa565b610a8e6116fa565b610a96611723565b610ac66040518060400160405280600f81526020016e466f724c6f6f74416e64476c6f727960881b815250611752565b610ad969d3c21bcecceda100000061179c565b610ae460003361141e565b610b0e7f5fdbd35e8da83ee755d5e62a539e5ed7f47126abede0b8b10f9ea43dc6eed07f3361141e565b610b266000805160206129198339815191523361141e565b80156106aa576000805461ff0019169055604051600181527f7f26b83ff96e1f2b6a682f133852f6798a09c465da95921460cefb38474024989060200160405180910390a150565b600080516020612919833981519152610b8681611414565b6106aa6117cc565b60006060806000806000606061012d546000801b148015610bb0575061012e54155b610bf45760405162461bcd60e51b81526020600482015260156024820152741152540dcc4c8e88155b9a5b9a5d1a585b1a5e9959605a1b6044820152606401610752565b610bfc611809565b610c04611819565b60408051600080825260208201909252600f60f81b9b939a50919850469750309650945092509050565b600091825260c9602090815260408084206001600160a01b0393909316845291905290205460ff1690565b6060603780546105e190612646565b7f5fdbd35e8da83ee755d5e62a539e5ed7f47126abede0b8b10f9ea43dc6eed07f610c9281611414565b610765611829565b6000806000610caa8460666115d3565b9150915081610cbb57603554610cbd565b805b949350505050565b60003381610cd38286610f5b565b905083811015610d335760405162461bcd60e51b815260206004820152602560248201527f45524332303a2064656372656173656420616c6c6f77616e63652062656c6f77604482015264207a65726f60d81b6064820152608401610752565b6106958286868403610f86565b60003361067281858561111e565b6101cb546001600160a01b0316336001600160a01b031614610db25760405162461bcd60e51b815260206004820152601f60248201527f41646472657373206e6f7420616c6c6f77656420746f206465706f7369742e006044820152606401610752565b6000610dc08284018461242d565b9050610dcc8482611567565b50505050565b83421115610e225760405162461bcd60e51b815260206004820152601d60248201527f45524332305065726d69743a206578706972656420646561646c696e650000006044820152606401610752565b60007f6e71edae12b1b97f4d1f60370fef10105fa2faae0126114a169c64845d6126c9888888610e518c611883565b6040805160208101969096526001600160a01b0394851690860152929091166060840152608083015260a082015260c0810186905260e0016040516020818303038152906040528051906020012090506000610eac826118ac565b90506000610ebc828787876118d9565b9050896001600160a01b0316816001600160a01b031614610f1f5760405162461bcd60e51b815260206004820152601e60248201527f45524332305065726d69743a20696e76616c6964207369676e617475726500006044820152606401610752565b610f2a8a8a8a610f86565b50505050505050505050565b600082815260c96020526040902060010154610f5181611414565b6106d283836114ae565b6001600160a01b03918216600090815260346020908152604080832093909416825291909152205490565b6001600160a01b038316610fe85760405162461bcd60e51b8152602060048201526024808201527f45524332303a20617070726f76652066726f6d20746865207a65726f206164646044820152637265737360e01b6064820152608401610752565b6001600160a01b0382166110495760405162461bcd60e51b815260206004820152602260248201527f45524332303a20617070726f766520746f20746865207a65726f206164647265604482015261737360f01b6064820152608401610752565b6001600160a01b0383811660008181526034602090815260408083209487168084529482529182902085905590518481527f8c5be1e5ebec7d5bd14f71427d1e84f3dd0314c0f7b2291e5b200ac8c7c3b925910160405180910390a3505050565b60006110b68484610f5b565b90506000198114610dcc57818110156111115760405162461bcd60e51b815260206004820152601d60248201527f45524332303a20696e73756666696369656e7420616c6c6f77616e63650000006044820152606401610752565b610dcc8484848403610f86565b6001600160a01b0383166111825760405162461bcd60e51b815260206004820152602560248201527f45524332303a207472616e736665722066726f6d20746865207a65726f206164604482015264647265737360d81b6064820152608401610752565b6001600160a01b0382166111e45760405162461bcd60e51b815260206004820152602360248201527f45524332303a207472616e7366657220746f20746865207a65726f206164647260448201526265737360e81b6064820152608401610752565b6111ef838383611901565b6001600160a01b038316600090815260336020526040902054818110156112675760405162461bcd60e51b815260206004820152602660248201527f45524332303a207472616e7366657220616d6f756e7420657863656564732062604482015265616c616e636560d01b6064820152608401610752565b6001600160a01b0380851660008181526033602052604080822086860390559286168082529083902080548601905591517fddf252ad1be2c89b69c2b068fc378daa952ba7f163c4a11628f55a4df523b3ef906112c79086815260200190565b60405180910390a3610dcc565b6001600160a01b0382166113345760405162461bcd60e51b815260206004820152602160248201527f45524332303a206275726e2066726f6d20746865207a65726f206164647265736044820152607360f81b6064820152608401610752565b61134082600083611901565b6001600160a01b038216600090815260336020526040902054818110156113b45760405162461bcd60e51b815260206004820152602260248201527f45524332303a206275726e20616d6f756e7420657863656564732062616c616e604482015261636560f01b6064820152608401610752565b6001600160a01b03831660008181526033602090815260408083208686039055603580548790039055518581529192917fddf252ad1be2c89b69c2b068fc378daa952ba7f163c4a11628f55a4df523b3ef910160405180910390a3505050565b6106aa8133611914565b6114288282610c2e565b61076557600082815260c9602090815260408083206001600160a01b03851684529091529020805460ff191660011790556114603390565b6001600160a01b0316816001600160a01b0316837f2f8788117e7eff1d82e926ec794901d17c78024a50270940304540a733656f0d60405160405180910390a45050565b60006106e161196d565b6114b88282610c2e565b1561076557600082815260c9602090815260408083206001600160a01b0385168085529252808320805460ff1916905551339285917ff6391f5c32d9c69d2a47ea670b442974b53935d1edc7fd64eb21e047a839171b9190a45050565b61151d6119e1565b60fb805460ff191690557f5db9ee0a495bf2e6ff9c91a7834c1ba4fdd244a5e8aa4e537bd38aeae4b073aa335b6040516001600160a01b03909116815260200160405180910390a1565b610194548161157560355490565b61157f9190612690565b11156115c95760405162461bcd60e51b8152602060048201526019602482015278115490cc8c10d85c1c19590e8818d85c08195e18d959591959603a1b6044820152606401610752565b6107658282611a2a565b6000806000841161161f5760405162461bcd60e51b815260206004820152601660248201527504552433230536e617073686f743a20696420697320360541b6044820152606401610752565b611627611a96565b8411156116765760405162461bcd60e51b815260206004820152601d60248201527f4552433230536e617073686f743a206e6f6e6578697374656e742069640000006044820152606401610752565b60006116828486611aa1565b8454909150810361169a5760008092509250506116c2565b60018460010182815481106116b1576116b16126cc565b906000526020600020015492509250505b9250929050565b600054610100900460ff166116f05760405162461bcd60e51b8152600401610752906126e2565b6107658282611b4e565b600054610100900460ff166117215760405162461bcd60e51b8152600401610752906126e2565b565b600054610100900460ff1661174a5760405162461bcd60e51b8152600401610752906126e2565b611721611b8e565b600054610100900460ff166117795760405162461bcd60e51b8152600401610752906126e2565b6106aa81604051806040016040528060018152602001603160f81b815250611bc1565b600054610100900460ff166117c35760405162461bcd60e51b8152600401610752906126e2565b6106aa81611c14565b6117d4611c89565b60fb805460ff191660011790557f62e78cea01bee320cd4e420270b5ea74000d11b0c9f74754ebdbfc544b05a25861154a3390565b606061012f80546105e190612646565b606061013080546105e190612646565b6000611839606880546001019055565b6000611843611a96565b90507f8030e83b04d87bef53480e26263266d6ca66863aa8506aca6f2559d18aa1cb678160405161187691815260200190565b60405180910390a1919050565b6001600160a01b0381166000908152610161602052604090208054600181018255905b50919050565b60006105cc6118b96114a4565b8360405161190160f01b8152600281019290925260228201526042902090565b60008060006118ea87878787611ccf565b915091506118f781611d93565b5095945050505050565b611909611c89565b6106d2838383611edd565b61191e8282610c2e565b6107655761192b81611f25565b611936836020611f37565b60405160200161194792919061272d565b60408051601f198184030181529082905262461bcd60e51b82526107529160040161239d565b60007f8b73c3c69bb8fe3d512ecc4cf759cc79239f7b179b0ffacaa9a75d522b39400f6119986120da565b6119a0612134565b60408051602081019490945283019190915260608201524660808201523060a082015260c00160405160208183030381529060405280519060200120905090565b60fb5460ff166117215760405162461bcd60e51b815260206004820152601460248201527314185d5cd8589b194e881b9bdd081c185d5cd95960621b6044820152606401610752565b6101945481611a3860355490565b611a429190612690565b1115611a8c5760405162461bcd60e51b8152602060048201526019602482015278115490cc8c10d85c1c19590e8818d85c08195e18d959591959603a1b6044820152606401610752565b6107658282612166565b60006106e160685490565b81546000908103611ab4575060006105cc565b82546000905b80821015611b01576000611ace8383612233565b60008781526020902090915085908201541115611aed57809150611afb565b611af8816001612690565b92505b50611aba565b600082118015611b2d575083611b2a86611b1c6001866126a3565b600091825260209091200190565b54145b15611b4657611b3d6001836126a3565b925050506105cc565b5090506105cc565b600054610100900460ff16611b755760405162461bcd60e51b8152600401610752906126e2565b6036611b8183826127f2565b5060376106d282826127f2565b600054610100900460ff16611bb55760405162461bcd60e51b8152600401610752906126e2565b60fb805460ff19169055565b600054610100900460ff16611be85760405162461bcd60e51b8152600401610752906126e2565b61012f611bf583826127f2565b50610130611c0382826127f2565b5050600061012d81905561012e5550565b600054610100900460ff16611c3b5760405162461bcd60e51b8152600401610752906126e2565b60008111611c835760405162461bcd60e51b8152602060048201526015602482015274045524332304361707065643a20636170206973203605c1b6044820152606401610752565b61019455565b60fb5460ff16156117215760405162461bcd60e51b815260206004820152601060248201526f14185d5cd8589b194e881c185d5cd95960821b6044820152606401610752565b6000807f7fffffffffffffffffffffffffffffff5d576e7357a4501ddfe92f46681b20a0831115611d065750600090506003611d8a565b6040805160008082526020820180845289905260ff881692820192909252606081018690526080810185905260019060a0016020604051602081039080840390855afa158015611d5a573d6000803e3d6000fd5b5050604051601f1901519150506001600160a01b038116611d8357600060019250925050611d8a565b9150600090505b94509492505050565b6000816004811115611da757611da76128b2565b03611daf5750565b6001816004811115611dc357611dc36128b2565b03611e105760405162461bcd60e51b815260206004820152601860248201527f45434453413a20696e76616c6964207369676e617475726500000000000000006044820152606401610752565b6002816004811115611e2457611e246128b2565b03611e715760405162461bcd60e51b815260206004820152601f60248201527f45434453413a20696e76616c6964207369676e6174757265206c656e677468006044820152606401610752565b6003816004811115611e8557611e856128b2565b036106aa5760405162461bcd60e51b815260206004820152602260248201527f45434453413a20696e76616c6964207369676e6174757265202773272076616c604482015261756560f01b6064820152608401610752565b6001600160a01b038316611efc57611ef48261224e565b6106d2612281565b6001600160a01b038216611f1357611ef48361224e565b611f1c8361224e565b6106d28261224e565b60606105cc6001600160a01b03831660145b60606000611f468360026128c8565b611f51906002612690565b67ffffffffffffffff811115611f6957611f696126b6565b6040519080825280601f01601f191660200182016040528015611f93576020820181803683370190505b509050600360fc1b81600081518110611fae57611fae6126cc565b60200101906001600160f81b031916908160001a905350600f60fb1b81600181518110611fdd57611fdd6126cc565b60200101906001600160f81b031916908160001a90535060006120018460026128c8565b61200c906001612690565b90505b6001811115612084576f181899199a1a9b1b9c1cb0b131b232b360811b85600f1660108110612040576120406126cc565b1a60f81b828281518110612056576120566126cc565b60200101906001600160f81b031916908160001a90535060049490941c9361207d816128df565b905061200f565b5083156120d35760405162461bcd60e51b815260206004820181905260248201527f537472696e67733a20686578206c656e67746820696e73756666696369656e746044820152606401610752565b9392505050565b6000806120e5611809565b8051909150156120fc578051602090910120919050565b61012d54801561210c5792915050565b7fc5d2460186f7233c927e7db2dcc703c0e500b653ca82273b7bfad8045d85a4709250505090565b60008061213f611819565b805190915015612156578051602090910120919050565b61012e54801561210c5792915050565b6001600160a01b0382166121bc5760405162461bcd60e51b815260206004820152601f60248201527f45524332303a206d696e7420746f20746865207a65726f2061646472657373006044820152606401610752565b6121c860008383611901565b80603560008282546121da9190612690565b90915550506001600160a01b0382166000818152603360209081526040808320805486019055518481527fddf252ad1be2c89b69c2b068fc378daa952ba7f163c4a11628f55a4df523b3ef910160405180910390a35050565b600061224260028484186128f6565b6120d390848416612690565b6001600160a01b03811660009081526065602090815260408083206033909252909120546106aa919061228f565b61228f565b611721606661227c60355490565b6000612299611a96565b9050806122a5846122d9565b10156106d2578254600180820185556000858152602080822090930193909355938401805494850181558252902090910155565b805460009081036122ec57506000919050565b815482906122fc906001906126a3565b8154811061230c5761230c6126cc565b90600052602060002001549050919050565b919050565b60006020828403121561233557600080fd5b81356001600160e01b0319811681146120d357600080fd5b60005b83811015612368578181015183820152602001612350565b50506000910152565b6000815180845261238981602086016020860161234d565b601f01601f19169290920160200192915050565b6020815260006120d36020830184612371565b80356001600160a01b038116811461231e57600080fd5b600080604083850312156123da57600080fd5b6123e3836123b0565b946020939093013593505050565b60008060006060848603121561240657600080fd5b61240f846123b0565b925061241d602085016123b0565b9150604084013590509250925092565b60006020828403121561243f57600080fd5b5035919050565b6000806040838503121561245957600080fd5b82359150612469602084016123b0565b90509250929050565b60006020828403121561248457600080fd5b6120d3826123b0565b60ff60f81b881681526000602060e060208401526124ae60e084018a612371565b83810360408501526124c0818a612371565b606085018990526001600160a01b038816608086015260a0850187905284810360c08601528551808252602080880193509091019060005b81811015612514578351835292840192918401916001016124f8565b50909c9b505050505050505050505050565b60008060006040848603121561253b57600080fd5b612544846123b0565b9250602084013567ffffffffffffffff8082111561256157600080fd5b818601915086601f83011261257557600080fd5b81358181111561258457600080fd5b87602082850101111561259657600080fd5b6020830194508093505050509250925092565b600080600080600080600060e0888a0312156125c457600080fd5b6125cd886123b0565b96506125db602089016123b0565b95506040880135945060608801359350608088013560ff811681146125ff57600080fd5b9699959850939692959460a0840135945060c09093013592915050565b6000806040838503121561262f57600080fd5b612638836123b0565b9150612469602084016123b0565b600181811c9082168061265a57607f821691505b6020821081036118a657634e487b7160e01b600052602260045260246000fd5b634e487b7160e01b600052601160045260246000fd5b808201808211156105cc576105cc61267a565b818103818111156105cc576105cc61267a565b634e487b7160e01b600052604160045260246000fd5b634e487b7160e01b600052603260045260246000fd5b6020808252602b908201527f496e697469616c697a61626c653a20636f6e7472616374206973206e6f74206960408201526a6e697469616c697a696e6760a81b606082015260800190565b7f416363657373436f6e74726f6c3a206163636f756e742000000000000000000081526000835161276581601785016020880161234d565b7001034b99036b4b9b9b4b733903937b6329607d1b601791840191820152835161279681602884016020880161234d565b01602801949350505050565b601f8211156106d2576000816000526020600020601f850160051c810160208610156127cb5750805b601f850160051c820191505b818110156127ea578281556001016127d7565b505050505050565b815167ffffffffffffffff81111561280c5761280c6126b6565b6128208161281a8454612646565b846127a2565b602080601f831160018114612855576000841561283d5750858301515b600019600386901b1c1916600185901b1785556127ea565b600085815260208120601f198616915b8281101561288457888601518255948401946001909101908401612865565b50858210156128a25787850151600019600388901b60f8161c191681555b5050505050600190811b01905550565b634e487b7160e01b600052602160045260246000fd5b80820281158282048414176105cc576105cc61267a565b6000816128ee576128ee61267a565b506000190190565b60008261291357634e487b7160e01b600052601260045260246000fd5b50049056fe65d7a28e3265b37a6474929f336521b332c1681b933f6cb9f3376673440d862aa2646970667358221220dbe050743622e1b851cd59a8738c933e494988558431c59502913ea32e0e862964736f6c63430008180033",
  "devdoc": {
    "events": {
      "Approval(address,address,uint256)": {
        "details": "Emitted when the allowance of a `spender` for an `owner` is set by a call to {approve}. `value` is the new allowance."
      },
      "EIP712DomainChanged()": {
        "details": "MAY be emitted to signal that the domain could have changed."
      },
      "Initialized(uint8)": {
        "details": "Triggered when the contract has been initialized or reinitialized."
      },
      "Paused(address)": {
        "details": "Emitted when the pause is triggered by `account`."
      },
      "RoleAdminChanged(bytes32,bytes32,bytes32)": {
        "details": "Emitted when `newAdminRole` is set as ``role``'s admin role, replacing `previousAdminRole` `DEFAULT_ADMIN_ROLE` is the starting admin for all roles, despite {RoleAdminChanged} not being emitted signaling this. _Available since v3.1._"
      },
      "RoleGranted(bytes32,address,address)": {
        "details": "Emitted when `account` is granted `role`. `sender` is the account that originated the contract call, an admin role bearer except when using {AccessControl-_setupRole}."
      },
      "RoleRevoked(bytes32,address,address)": {
        "details": "Emitted when `account` is revoked `role`. `sender` is the account that originated the contract call:   - if using `revokeRole`, it is the admin role bearer   - if using `renounceRole`, it is the role bearer (i.e. `account`)"
      },
      "Snapshot(uint256)": {
        "details": "Emitted by {_snapshot} when a snapshot identified by `id` is created."
      },
      "Transfer(address,address,uint256)": {
        "details": "Emitted when `value` tokens are moved from one account (`from`) to another (`to`). Note that `value` may be zero."
      },
      "Unpaused(address)": {
        "details": "Emitted when the pause is lifted by `account`."
      }
    },
    "kind": "dev",
    "methods": {
      "DOMAIN_SEPARATOR()": {
        "details": "Returns the domain separator used in the encoding of the signature for {permit}, as defined by {EIP712}."
      },
      "allowance(address,address)": {
        "details": "See {IERC20-allowance}."
      },
      "approve(address,uint256)": {
        "details": "See {IERC20-approve}. NOTE: If `amount` is the maximum `uint256`, the allowance is not updated on `transferFrom`. This is semantically equivalent to an infinite approval. Requirements: - `spender` cannot be the zero address."
      },
      "balanceOf(address)": {
        "details": "See {IERC20-balanceOf}."
      },
      "balanceOfAt(address,uint256)": {
        "details": "Retrieves the balance of `account` at the time `snapshotId` was created."
      },
      "cap()": {
        "details": "Returns the cap on the token's total supply."
      },
      "constructor": {
        "custom:oz-upgrades-unsafe-allow": "constructor"
      },
      "decimals()": {
        "details": "Returns the number of decimals used to get its user representation. For example, if `decimals` equals `2`, a balance of `505` tokens should be displayed to a user as `5.05` (`505 / 10 ** 2`). Tokens usually opt for a value of 18, imitating the relationship between Ether and Wei. This is the default value returned by this function, unless it's overridden. NOTE: This information is only used for _display_ purposes: it in no way affects any of the arithmetic of the contract, including {IERC20-balanceOf} and {IERC20-transfer}."
      },
      "decreaseAllowance(address,uint256)": {
        "details": "Atomically decreases the allowance granted to `spender` by the caller. This is an alternative to {approve} that can be used as a mitigation for problems described in {IERC20-approve}. Emits an {Approval} event indicating the updated allowance. Requirements: - `spender` cannot be the zero address. - `spender` must have allowance for the caller of at least `subtractedValue`."
      },
      "eip712Domain()": {
        "details": "See {EIP-5267}. _Available since v4.9._"
      },
      "getRoleAdmin(bytes32)": {
        "details": "Returns the admin role that controls `role`. See {grantRole} and {revokeRole}. To change a role's admin, use {_setRoleAdmin}."
      },
      "grantRole(bytes32,address)": {
        "details": "Grants `role` to `account`. If `account` had not been already granted `role`, emits a {RoleGranted} event. Requirements: - the caller must have ``role``'s admin role. May emit a {RoleGranted} event."
      },
      "hasRole(bytes32,address)": {
        "details": "Returns `true` if `account` has been granted `role`."
      },
      "increaseAllowance(address,uint256)": {
        "details": "Atomically increases the allowance granted to `spender` by the caller. This is an alternative to {approve} that can be used as a mitigation for problems described in {IERC20-approve}. Emits an {Approval} event indicating the updated allowance. Requirements: - `spender` cannot be the zero address."
      },
      "name()": {
        "details": "Returns the name of the token."
      },
      "nonces(address)": {
        "details": "Returns the current nonce for `owner`. This value must be included whenever a signature is generated for {permit}. Every successful call to {permit} increases ``owner``'s nonce by one. This prevents a signature from being used multiple times."
      },
      "paused()": {
        "details": "Returns true if the contract is paused, and false otherwise."
      },
      "permit(address,address,uint256,uint256,uint8,bytes32,bytes32)": {
        "details": "Sets `value` as the allowance of `spender` over ``owner``'s tokens, given ``owner``'s signed approval. IMPORTANT: The same issues {IERC20-approve} has related to transaction ordering also apply here. Emits an {Approval} event. Requirements: - `spender` cannot be the zero address. - `deadline` must be a timestamp in the future. - `v`, `r` and `s` must be a valid `secp256k1` signature from `owner` over the EIP712-formatted function arguments. - the signature must use ``owner``'s current nonce (see {nonces}). For more information on the signature format, see the https://eips.ethereum.org/EIPS/eip-2612#specification[relevant EIP section]. CAUTION: See Security Considerations above."
      },
      "renounceRole(bytes32,address)": {
        "details": "Revokes `role` from the calling account. Roles are often managed via {grantRole} and {revokeRole}: this function's purpose is to provide a mechanism for accounts to lose their privileges if they are compromised (such as when a trusted device is misplaced). If the calling account had been revoked `role`, emits a {RoleRevoked} event. Requirements: - the caller must be `account`. May emit a {RoleRevoked} event."
      },
      "revokeRole(bytes32,address)": {
        "details": "Revokes `role` from `account`. If `account` had been granted `role`, emits a {RoleRevoked} event. Requirements: - the caller must have ``role``'s admin role. May emit a {RoleRevoked} event."
      },
      "supportsInterface(bytes4)": {
        "details": "See {IERC165-supportsInterface}."
      },
      "symbol()": {
        "details": "Returns the symbol of the token, usually a shorter version of the name."
      },
      "totalSupply()": {
        "details": "See {IERC20-totalSupply}."
      },
      "totalSupplyAt(uint256)": {
        "details": "Retrieves the total supply at the time `snapshotId` was created."
      },
      "transfer(address,uint256)": {
        "details": "See {IERC20-transfer}. Requirements: - `to` cannot be the zero address. - the caller must have a balance of at least `amount`."
      },
      "transferFrom(address,address,uint256)": {
        "details": "See {IERC20-transferFrom}. Emits an {Approval} event indicating the updated allowance. This is not required by the EIP. See the note at the beginning of {ERC20}. NOTE: Does not update the allowance if the current allowance is the maximum `uint256`. Requirements: - `from` and `to` cannot be the zero address. - `from` must have a balance of at least `amount`. - the caller must have allowance for ``from``'s tokens of at least `amount`."
      }
    },
    "version": 1
  },
  "userdoc": {
    "kind": "user",
    "methods": {},
    "version": 1
  },
  "storageLayout": {
    "storage": [
      {
        "astId": 4357,
        "contract": "contracts/ForLootAndGlory.sol:ForLootAndGlory",
        "label": "_initialized",
        "offset": 0,
        "slot": "0",
        "type": "t_uint8"
      },
      {
        "astId": 4360,
        "contract": "contracts/ForLootAndGlory.sol:ForLootAndGlory",
        "label": "_initializing",
        "offset": 1,
        "slot": "0",
        "type": "t_bool"
      },
      {
        "astId": 6567,
        "contract": "contracts/ForLootAndGlory.sol:ForLootAndGlory",
        "label": "__gap",
        "offset": 0,
        "slot": "1",
        "type": "t_array(t_uint256)50_storage"
      },
      {
        "astId": 4667,
        "contract": "contracts/ForLootAndGlory.sol:ForLootAndGlory",
        "label": "_balances",
        "offset": 0,
        "slot": "51",
        "type": "t_mapping(t_address,t_uint256)"
      },
      {
        "astId": 4673,
        "contract": "contracts/ForLootAndGlory.sol:ForLootAndGlory",
        "label": "_allowances",
        "offset": 0,
        "slot": "52",
        "type": "t_mapping(t_address,t_mapping(t_address,t_uint256))"
      },
      {
        "astId": 4675,
        "contract": "contracts/ForLootAndGlory.sol:ForLootAndGlory",
        "label": "_totalSupply",
        "offset": 0,
        "slot": "53",
        "type": "t_uint256"
      },
      {
        "astId": 4677,
        "contract": "contracts/ForLootAndGlory.sol:ForLootAndGlory",
        "label": "_name",
        "offset": 0,
        "slot": "54",
        "type": "t_string_storage"
      },
      {
        "astId": 4679,
        "contract": "contracts/ForLootAndGlory.sol:ForLootAndGlory",
        "label": "_symbol",
        "offset": 0,
        "slot": "55",
        "type": "t_string_storage"
      },
      {
        "astId": 5259,
        "contract": "contracts/ForLootAndGlory.sol:ForLootAndGlory",
        "label": "__gap",
        "offset": 0,
        "slot": "56",
        "type": "t_array(t_uint256)45_storage"
      },
      {
        "astId": 5650,
        "contract": "contracts/ForLootAndGlory.sol:ForLootAndGlory",
        "label": "_accountBalanceSnapshots",
        "offset": 0,
        "slot": "101",
        "type": "t_mapping(t_address,t_struct(Snapshots)5645_storage)"
      },
      {
        "astId": 5653,
        "contract": "contracts/ForLootAndGlory.sol:ForLootAndGlory",
        "label": "_totalSupplySnapshots",
        "offset": 0,
        "slot": "102",
        "type": "t_struct(Snapshots)5645_storage"
      },
      {
        "astId": 5656,
        "contract": "contracts/ForLootAndGlory.sol:ForLootAndGlory",
        "label": "_currentSnapshotId",
        "offset": 0,
        "slot": "104",
        "type": "t_struct(Counter)6574_storage"
      },
      {
        "astId": 5966,
        "contract": "contracts/ForLootAndGlory.sol:ForLootAndGlory",
        "label": "__gap",
        "offset": 0,
        "slot": "105",
        "type": "t_array(t_uint256)46_storage"
      },
      {
        "astId": 7676,
        "contract": "contracts/ForLootAndGlory.sol:ForLootAndGlory",
        "label": "__gap",
        "offset": 0,
        "slot": "151",
        "type": "t_array(t_uint256)50_storage"
      },
      {
        "astId": 3944,
        "contract": "contracts/ForLootAndGlory.sol:ForLootAndGlory",
        "label": "_roles",
        "offset": 0,
        "slot": "201",
        "type": "t_mapping(t_bytes32,t_struct(RoleData)3939_storage)"
      },
      {
        "astId": 4251,
        "contract": "contracts/ForLootAndGlory.sol:ForLootAndGlory",
        "label": "__gap",
        "offset": 0,
        "slot": "202",
        "type": "t_array(t_uint256)49_storage"
      },
      {
        "astId": 4541,
        "contract": "contracts/ForLootAndGlory.sol:ForLootAndGlory",
        "label": "_paused",
        "offset": 0,
        "slot": "251",
        "type": "t_bool"
      },
      {
        "astId": 4646,
        "contract": "contracts/ForLootAndGlory.sol:ForLootAndGlory",
        "label": "__gap",
        "offset": 0,
        "slot": "252",
        "type": "t_array(t_uint256)49_storage"
      },
      {
        "astId": 7366,
        "contract": "contracts/ForLootAndGlory.sol:ForLootAndGlory",
        "label": "_hashedName",
        "offset": 0,
        "slot": "301",
        "type": "t_bytes32"
      },
      {
        "astId": 7369,
        "contract": "contracts/ForLootAndGlory.sol:ForLootAndGlory",
        "label": "_hashedVersion",
        "offset": 0,
        "slot": "302",
        "type": "t_bytes32"
      },
      {
        "astId": 7371,
        "contract": "contracts/ForLootAndGlory.sol:ForLootAndGlory",
        "label": "_name",
        "offset": 0,
        "slot": "303",
        "type": "t_string_storage"
      },
      {
        "astId": 7373,
        "contract": "contracts/ForLootAndGlory.sol:ForLootAndGlory",
        "label": "_version",
        "offset": 0,
        "slot": "304",
        "type": "t_string_storage"
      },
      {
        "astId": 7631,
        "contract": "contracts/ForLootAndGlory.sol:ForLootAndGlory",
        "label": "__gap",
        "offset": 0,
        "slot": "305",
        "type": "t_array(t_uint256)48_storage"
      },
      {
        "astId": 5453,
        "contract": "contracts/ForLootAndGlory.sol:ForLootAndGlory",
        "label": "_nonces",
        "offset": 0,
        "slot": "353",
        "type": "t_mapping(t_address,t_struct(Counter)6574_storage)"
      },
      {
        "astId": 5461,
        "contract": "contracts/ForLootAndGlory.sol:ForLootAndGlory",
        "label": "_PERMIT_TYPEHASH_DEPRECATED_SLOT",
        "offset": 0,
        "slot": "354",
        "type": "t_bytes32"
      },
      {
        "astId": 5617,
        "contract": "contracts/ForLootAndGlory.sol:ForLootAndGlory",
        "label": "__gap",
        "offset": 0,
        "slot": "355",
        "type": "t_array(t_uint256)49_storage"
      },
      {
        "astId": 5350,
        "contract": "contracts/ForLootAndGlory.sol:ForLootAndGlory",
        "label": "_cap",
        "offset": 0,
        "slot": "404",
        "type": "t_uint256"
      },
      {
        "astId": 5425,
        "contract": "contracts/ForLootAndGlory.sol:ForLootAndGlory",
        "label": "__gap",
        "offset": 0,
        "slot": "405",
        "type": "t_array(t_uint256)50_storage"
      },
      {
        "astId": 10220,
        "contract": "contracts/ForLootAndGlory.sol:ForLootAndGlory",
        "label": "feeBps",
        "offset": 0,
        "slot": "455",
        "type": "t_uint256"
      },
      {
        "astId": 10222,
        "contract": "contracts/ForLootAndGlory.sol:ForLootAndGlory",
        "label": "feeFixed",
        "offset": 0,
        "slot": "456",
        "type": "t_uint256"
      },
      {
        "astId": 10224,
        "contract": "contracts/ForLootAndGlory.sol:ForLootAndGlory",
        "label": "feeCap",
        "offset": 0,
        "slot": "457",
        "type": "t_uint256"
      },
      {
        "astId": 10226,
        "contract": "contracts/ForLootAndGlory.sol:ForLootAndGlory",
        "label": "feeRecipient",
        "offset": 0,
        "slot": "458",
        "type": "t_address"
      },
      {
        "astId": 10228,
        "contract": "contracts/ForLootAndGlory.sol:ForLootAndGlory",
        "label": "childChainManagerProxy",
        "offset": 0,
        "slot": "459",
        "type": "t_address"
      }
    ],
    "types": {
      "t_address": {
        "encoding": "inplace",
        "label": "address",
        "numberOfBytes": "20"
      },
      "t_array(t_uint256)45_storage": {
        "base": "t_uint256",
        "encoding": "inplace",
        "label": "uint256[45]",
        "numberOfBytes": "1440"
      },
      "t_array(t_uint256)46_storage": {
        "base": "t_uint256",
        "encoding": "inplace",
        "label": "uint256[46]",
        "numberOfBytes": "1472"
      },
      "t_array(t_uint256)48_storage": {
        "base": "t_uint256",
        "encoding": "inplace",
        "label": "uint256[48]",
        "numberOfBytes": "1536"
      },
      "t_array(t_uint256)49_storage": {
        "base": "t_uint256",
        "encoding": "inplace",
        "label": "uint256[49]",
        "numberOfBytes": "1568"
      },
      "t_array(t_uint256)50_storage": {
        "base": "t_uint256",
        "encoding": "inplace",
        "label": "uint256[50]",
        "numberOfBytes": "1600"
      },
      "t_array(t_uint256)dyn_storage": {
        "base": "t_uint256",
        "encoding": "dynamic_array",
        "label": "uint256[]",
        "numberOfBytes": "32"
      },
      "t_bool": {
        "encoding": "inplace",
        "label": "bool",
        "numberOfBytes": "1"
      },
      "t_bytes32": {
        "encoding": "inplace",
        "label": "bytes32",
        "numberOfBytes": "32"
      },
      "t_mapping(t_address,t_bool)": {
        "encoding": "mapping",
        "key": "t_address",
        "label": "mapping(address => bool)",
        "numberOfBytes": "32",
        "value": "t_bool"
      },
      "t_mapping(t_address,t_mapping(t_address,t_uint256))": {
        "encoding": "mapping",
        "key": "t_address",
        "label": "mapping(address => mapping(address => uint256))",
        "numberOfBytes": "32",
        "value": "t_mapping(t_address,t_uint256)"
      },
      "t_mapping(t_address,t_struct(Counter)6574_storage)": {
        "encoding": "mapping",
        "key": "t_address",
        "label": "mapping(address => struct CountersUpgradeable.Counter)",
        "numberOfBytes": "32",
        "value": "t_struct(Counter)6574_storage"
      },
      "t_mapping(t_address,t_struct(Snapshots)5645_storage)": {
        "encoding": "mapping",
        "key": "t_address",
        "label": "mapping(address => struct ERC20SnapshotUpgradeable.Snapshots)",
        "numberOfBytes": "32",
        "value": "t_struct(Snapshots)5645_storage"
      },
      "t_mapping(t_address,t_uint256)": {
        "encoding": "mapping",
        "key": "t_address",
        "label": "mapping(address => uint256)",
        "numberOfBytes": "32",
        "value": "t_uint256"
      },
      "t_mapping(t_bytes32,t_struct(RoleData)3939_storage)": {
        "encoding": "mapping",
        "key": "t_bytes32",
        "label": "mapping(bytes32 => struct AccessControlUpgradeable.RoleData)",
        "numberOfBytes": "32",
        "value": "t_struct(RoleData)3939_storage"
      },
      "t_string_storage": {
        "encoding": "bytes",
        "label": "string",
        "numberOfBytes": "32"
      },
      "t_struct(Counter)6574_storage": {
        "encoding": "inplace",
        "label": "struct CountersUpgradeable.Counter",
        "members": [
          {
            "astId": 6573,
            "contract": "contracts/ForLootAndGlory.sol:ForLootAndGlory",
            "label": "_value",
            "offset": 0,
            "slot": "0",
            "type": "t_uint256"
          }
        ],
        "numberOfBytes": "32"
      },
      "t_struct(RoleData)3939_storage": {
        "encoding": "inplace",
        "label": "struct AccessControlUpgradeable.RoleData",
        "members": [
          {
            "astId": 3936,
            "contract": "contracts/ForLootAndGlory.sol:ForLootAndGlory",
            "label": "members",
            "offset": 0,
            "slot": "0",
            "type": "t_mapping(t_address,t_bool)"
          },
          {
            "astId": 3938,
            "contract": "contracts/ForLootAndGlory.sol:ForLootAndGlory",
            "label": "adminRole",
            "offset": 0,
            "slot": "1",
            "type": "t_bytes32"
          }
        ],
        "numberOfBytes": "64"
      },
      "t_struct(Snapshots)5645_storage": {
        "encoding": "inplace",
        "label": "struct ERC20SnapshotUpgradeable.Snapshots",
        "members": [
          {
            "astId": 5641,
            "contract": "contracts/ForLootAndGlory.sol:ForLootAndGlory",
            "label": "ids",
            "offset": 0,
            "slot": "0",
            "type": "t_array(t_uint256)dyn_storage"
          },
          {
            "astId": 5644,
            "contract": "contracts/ForLootAndGlory.sol:ForLootAndGlory",
            "label": "values",
            "offset": 0,
            "slot": "1",
            "type": "t_array(t_uint256)dyn_storage"
          }
        ],
        "numberOfBytes": "64"
      },
      "t_uint256": {
        "encoding": "inplace",
        "label": "uint256",
        "numberOfBytes": "32"
      },
      "t_uint8": {
        "encoding": "inplace",
        "label": "uint8",
        "numberOfBytes": "1"
      }
    }
  }
}